S0110000696E746572727570742E7372656326
S11300000C9434000C943E000C943E000C943E007E
S11300100C943E000C943E000C943E000C943E0064
S11300200C943E000C943E000C943E000C943E0054
S11300300C943E000C943E000C943E000C943E0044
S11300400C943E000C943E000C943E000C943E0034
S11300500C943E000C943E000C943E000C943E0024
S11300600C943E000C943E0011241FBECFEFD4E04C
S1130070DEBFCDBF0E9440000C9454000C940000DD
S113008080E18AB98AB18F7E8AB980E48AB98BB15A
S11300908F7B8BB94C9B04C08BB180648BB9FACF36
S10F00A08BB18F7B8BB9F6CFF894FFCFA7
S9030000FC
