:100000000C9434000C943E000C943E000C943E0082
:100010000C943E000C943E000C943E000C943E0068
:100020000C943E000C943E000C943E000C943E0058
:100030000C943E000C943E000C943E000C943E0048
:100040000C943E000C943E000C943E000C943E0038
:100050000C943E000C943E000C943E000C943E0028
:100060000C943E000C943E0011241FBECFEFD4E050
:10007000DEBFCDBF0E9440000C9462000C940000D3
:100080008AB180648AB924E630E04FEF5FEFC9019E
:10009000855691098B39934118F051954195510935
:1000A000240F351F8BB18F7B8BB9C9010197F1F7F5
:1000B0008BB180648BB980E094E1821B930B019734
:0800C000F1F7E5CFF894FFCF42
:00000001FF
