S0110000736F6674426C696E6B2E7372656367
S11300000C9434000C9451000C9451000C94510045
S11300100C9451000C9451000C9451000C94510018
S11300200C9451000C9451000C9451000C94510008
S11300300C9451000C9451000C9451000C945100F8
S11300400C9451000C9451000C9451000C945100E8
S11300500C9451000C9451000C9451000C945100D8
S11300600C9451000C94510011241FBECFEFD4E026
S1130070DEBFCDBF11E0A0E0B1E0EEEFF0E002C0E2
S113008005900D92A030B107D9F721E0A0E0B1E0CE
S113009001C01D92A030B207E1F70E945F000C94EA
S11300A07D000C94000084B5836884BD85B58160AF
S11300B085BD8AB180648AB9089587BD08950E9478
S11300C05300C0E0D0E0CF3FD10509F04CF48C2FB1
S11300D00E945D008CED95E00197F1F72196F3CF36
S11300E0CFEFD0E0DD236CF38C2F0E945D008CED0C
S11100F095E00197F1F72197F5CFF894FFCF33
S9030000FC
