S012000048656C6C6F576F726C642E7372656316
S11300000C9434000C943E000C943E000C943E007E
S11300100C943E000C943E000C943E000C943E0064
S11300200C943E000C943E000C943E000C943E0054
S11300300C943E000C943E000C943E000C943E0044
S11300400C943E000C943E000C943E000C943E0034
S11300500C943E000C943E000C943E000C943E0024
S11300600C943E000C943E0011241FBECFEFD4E04C
S1130070DEBFCDBF0E9440000C9458000C940000D9
S113008080E48AB98BB18F7B8BB98BE792E90197B6
S1130090F1F700C000008BB18F7B8BB98BE792E93D
S11300A00197F1F700C000008BB180648BB9EDCFEC
S10700B0F894FFCFEE
S9030000FC
