S012000048656C6C6F576F726C642E7372656316
S11300000C9434000C943E000C943E000C943E007E
S11300100C943E000C943E000C943E000C943E0064
S11300200C943E000C943E000C943E000C943E0054
S11300300C943E000C943E000C943E000C943E0044
S11300400C943E000C943E000C943E000C943E0034
S11300500C943E000C943E000C943E000C943E0024
S11300600C943E000C943E0011241FBECFEFD4E04C
S1130070DEBFCDBF0E9440000C945E000C940000D3
S113008080E48AB98BB18F7B8BB92FEF89E698E135
S1130090215080409040E1F700C000008BB18F7B7D
S11300A08BB92FEF89E698E1215080409040E1F729
S11300B000C000008BB180648BB9E7CFF894FFCF08
S9030000FC
